{
    "_format": "hh-sol-artifact-1",
    "contractName": "Transactions",
    "sourceName": "contracts/Transactions.sol",
    "abi": [
        {
            "anonymous": false,
            "inputs": [
                {
                    "indexed": false,
                    "internalType": "address",
                    "name": "from",
                    "type": "address"
                },
                {
                    "indexed": false,
                    "internalType": "address",
                    "name": "receiver",
                    "type": "address"
                },
                {
                    "indexed": false,
                    "internalType": "uint256",
                    "name": "amount",
                    "type": "uint256"
                },
                {
                    "indexed": false,
                    "internalType": "string",
                    "name": "message",
                    "type": "string"
                },
                {
                    "indexed": false,
                    "internalType": "uint256",
                    "name": "timestamp",
                    "type": "uint256"
                },
                {
                    "indexed": false,
                    "internalType": "string",
                    "name": "keyboard",
                    "type": "string"
                }
            ],
            "name": "Transfer",
            "type": "event"
        },
        {
            "inputs": [
                {
                    "internalType": "address",
                    "name": "receiver",
                    "type": "address"
                },
                {
                    "internalType": "uint256",
                    "name": "amount",
                    "type": "uint256"
                },
                {
                    "internalType": "string",
                    "name": "message",
                    "type": "string"
                },
                {
                    "internalType": "string",
                    "name": "keyword",
                    "type": "string"
                }
            ],
            "name": "addToBlockchain",
            "outputs": [],
            "stateMutability": "nonpayable",
            "type": "function"
        },
        {
            "inputs": [],
            "name": "getAllTransactions",
            "outputs": [
                {
                    "components": [
                        {
                            "internalType": "address",
                            "name": "sender",
                            "type": "address"
                        },
                        {
                            "internalType": "address",
                            "name": "receiver",
                            "type": "address"
                        },
                        {
                            "internalType": "uint256",
                            "name": "amount",
                            "type": "uint256"
                        },
                        {
                            "internalType": "string",
                            "name": "message",
                            "type": "string"
                        },
                        {
                            "internalType": "uint256",
                            "name": "timestamp",
                            "type": "uint256"
                        },
                        {
                            "internalType": "string",
                            "name": "keyboard",
                            "type": "string"
                        }
                    ],
                    "internalType": "struct Transactions.TransferStruct[]",
                    "name": "",
                    "type": "tuple[]"
                }
            ],
            "stateMutability": "view",
            "type": "function"
        },
        {
            "inputs": [],
            "name": "getTransactionCount",
            "outputs": [
                {
                    "internalType": "uint256",
                    "name": "",
                    "type": "uint256"
                }
            ],
            "stateMutability": "view",
            "type": "function"
        }
    ],
    "bytecode": "0x608060405234801561001057600080fd5b50610c03806100206000396000f3fe608060405234801561001057600080fd5b50600436106100415760003560e01c806327506f53146100465780632e7700f014610064578063cc2d7ead14610082575b600080fd5b61004e61009e565b60405161005b9190610794565b60405180910390f35b61006c6102e1565b60405161007991906107c5565b60405180910390f35b61009c60048036038101906100979190610981565b6102ea565b005b60606001805480602002602001604051908101604052809291908181526020016000905b828210156102d857838290600052602060002090600602016040518060c00160405290816000820160009054906101000a900473ffffffffffffffffffffffffffffffffffffffff1673ffffffffffffffffffffffffffffffffffffffff1673ffffffffffffffffffffffffffffffffffffffff1681526020016001820160009054906101000a900473ffffffffffffffffffffffffffffffffffffffff1673ffffffffffffffffffffffffffffffffffffffff1673ffffffffffffffffffffffffffffffffffffffff168152602001600282015481526020016003820180546101ab90610a4f565b80601f01602080910402602001604051908101604052809291908181526020018280546101d790610a4f565b80156102245780601f106101f957610100808354040283529160200191610224565b820191906000526020600020905b81548152906001019060200180831161020757829003601f168201915b505050505081526020016004820154815260200160058201805461024790610a4f565b80601f016020809104026020016040519081016040528092919081815260200182805461027390610a4f565b80156102c05780601f10610295576101008083540402835291602001916102c0565b820191906000526020600020905b8154815290600101906020018083116102a357829003601f168201915b505050505081525050815260200190600101906100c2565b50505050905090565b60008054905090565b60016000808282546102fc9190610aaf565b9250508190555060016040518060c001604052803373ffffffffffffffffffffffffffffffffffffffff1681526020018673ffffffffffffffffffffffffffffffffffffffff16815260200185815260200184815260200142815260200183815250908060018154018082558091505060019003906000526020600020906006020160009091909190915060008201518160000160006101000a81548173ffffffffffffffffffffffffffffffffffffffff021916908373ffffffffffffffffffffffffffffffffffffffff16021790555060208201518160010160006101000a81548173ffffffffffffffffffffffffffffffffffffffff021916908373ffffffffffffffffffffffffffffffffffffffff16021790555060408201518160020155606082015181600301908051906020019061043b9291906104ac565b506080820151816004015560a08201518160050190805190602001906104629291906104ac565b5050507f416cfa4330a4565f45c2fd2dd4826a83a37443aba2ce6f79477c7355afac35fa33858585428660405161049e96959493929190610b5e565b60405180910390a150505050565b8280546104b890610a4f565b90600052602060002090601f0160209004810192826104da5760008555610521565b82601f106104f357805160ff1916838001178555610521565b82800160010185558215610521579182015b82811115610520578251825591602001919060010190610505565b5b50905061052e9190610532565b5090565b5b8082111561054b576000816000905550600101610533565b5090565b600081519050919050565b600082825260208201905092915050565b6000819050602082019050919050565b600073ffffffffffffffffffffffffffffffffffffffff82169050919050565b60006105a68261057b565b9050919050565b6105b68161059b565b82525050565b6000819050919050565b6105cf816105bc565b82525050565b600081519050919050565b600082825260208201905092915050565b60005b8381101561060f5780820151818401526020810190506105f4565b8381111561061e576000848401525b50505050565b6000601f19601f8301169050919050565b6000610640826105d5565b61064a81856105e0565b935061065a8185602086016105f1565b61066381610624565b840191505092915050565b600060c08301600083015161068660008601826105ad565b50602083015161069960208601826105ad565b5060408301516106ac60408601826105c6565b50606083015184820360608601526106c48282610635565b91505060808301516106d960808601826105c6565b5060a083015184820360a08601526106f18282610635565b9150508091505092915050565b600061070a838361066e565b905092915050565b6000602082019050919050565b600061072a8261054f565b610734818561055a565b9350836020820285016107468561056b565b8060005b85811015610782578484038952815161076385826106fe565b945061076e83610712565b925060208a0199505060018101905061074a565b50829750879550505050505092915050565b600060208201905081810360008301526107ae818461071f565b905092915050565b6107bf816105bc565b82525050565b60006020820190506107da60008301846107b6565b92915050565b6000604051905090565b600080fd5b600080fd5b6107fd8161059b565b811461080857600080fd5b50565b60008135905061081a816107f4565b92915050565b610829816105bc565b811461083457600080fd5b50565b60008135905061084681610820565b92915050565b600080fd5b600080fd5b7f4e487b7100000000000000000000000000000000000000000000000000000000600052604160045260246000fd5b61088e82610624565b810181811067ffffffffffffffff821117156108ad576108ac610856565b5b80604052505050565b60006108c06107e0565b90506108cc8282610885565b919050565b600067ffffffffffffffff8211156108ec576108eb610856565b5b6108f582610624565b9050602081019050919050565b82818337600083830152505050565b600061092461091f846108d1565b6108b6565b9050828152602081018484840111156109405761093f610851565b5b61094b848285610902565b509392505050565b600082601f8301126109685761096761084c565b5b8135610978848260208601610911565b91505092915050565b6000806000806080858703121561099b5761099a6107ea565b5b60006109a98782880161080b565b94505060206109ba87828801610837565b935050604085013567ffffffffffffffff8111156109db576109da6107ef565b5b6109e787828801610953565b925050606085013567ffffffffffffffff811115610a0857610a076107ef565b5b610a1487828801610953565b91505092959194509250565b7f4e487b7100000000000000000000000000000000000000000000000000000000600052602260045260246000fd5b60006002820490506001821680610a6757607f821691505b602082108103610a7a57610a79610a20565b5b50919050565b7f4e487b7100000000000000000000000000000000000000000000000000000000600052601160045260246000fd5b6000610aba826105bc565b9150610ac5836105bc565b9250827fffffffffffffffffffffffffffffffffffffffffffffffffffffffffffffffff03821115610afa57610af9610a80565b5b828201905092915050565b610b0e8161059b565b82525050565b600082825260208201905092915050565b6000610b30826105d5565b610b3a8185610b14565b9350610b4a8185602086016105f1565b610b5381610624565b840191505092915050565b600060c082019050610b736000830189610b05565b610b806020830188610b05565b610b8d60408301876107b6565b8181036060830152610b9f8186610b25565b9050610bae60808301856107b6565b81810360a0830152610bc08184610b25565b905097965050505050505056fea2646970667358221220ecf5a2eedab2639e967f579f991a1269a202616feb5254f5d677cf9c0386f62d64736f6c634300080e0033",
    "linkReferences": {},
    "deployedLinkReferences": {}
}