{
  "contractName": "Nfts",
  "abi": [
    {
      "inputs": [
        {
          "internalType": "string",
          "name": "_name",
          "type": "string"
        },
        {
          "internalType": "string",
          "name": "_symbol",
          "type": "string"
        }
      ],
      "stateMutability": "nonpayable",
      "type": "constructor"
    },
    {
      "anonymous": false,
      "inputs": [
        {
          "indexed": true,
          "internalType": "address",
          "name": "owner",
          "type": "address"
        },
        {
          "indexed": true,
          "internalType": "address",
          "name": "approved",
          "type": "address"
        },
        {
          "indexed": true,
          "internalType": "uint256",
          "name": "tokenId",
          "type": "uint256"
        }
      ],
      "name": "Approval",
      "type": "event"
    },
    {
      "anonymous": false,
      "inputs": [
        {
          "indexed": true,
          "internalType": "address",
          "name": "owner",
          "type": "address"
        },
        {
          "indexed": true,
          "internalType": "address",
          "name": "operator",
          "type": "address"
        },
        {
          "indexed": false,
          "internalType": "bool",
          "name": "approved",
          "type": "bool"
        }
      ],
      "name": "ApprovalForAll",
      "type": "event"
    },
    {
      "anonymous": false,
      "inputs": [
        {
          "indexed": true,
          "internalType": "address",
          "name": "previousOwner",
          "type": "address"
        },
        {
          "indexed": true,
          "internalType": "address",
          "name": "newOwner",
          "type": "address"
        }
      ],
      "name": "OwnershipTransferred",
      "type": "event"
    },
    {
      "anonymous": false,
      "inputs": [
        {
          "indexed": true,
          "internalType": "address",
          "name": "from",
          "type": "address"
        },
        {
          "indexed": true,
          "internalType": "address",
          "name": "to",
          "type": "address"
        },
        {
          "indexed": true,
          "internalType": "uint256",
          "name": "tokenId",
          "type": "uint256"
        }
      ],
      "name": "Transfer",
      "type": "event"
    },
    {
      "inputs": [
        {
          "internalType": "address",
          "name": "to",
          "type": "address"
        },
        {
          "internalType": "uint256",
          "name": "tokenId",
          "type": "uint256"
        }
      ],
      "name": "approve",
      "outputs": [],
      "stateMutability": "nonpayable",
      "type": "function"
    },
    {
      "inputs": [
        {
          "internalType": "address",
          "name": "owner",
          "type": "address"
        }
      ],
      "name": "balanceOf",
      "outputs": [
        {
          "internalType": "uint256",
          "name": "",
          "type": "uint256"
        }
      ],
      "stateMutability": "view",
      "type": "function"
    },
    {
      "inputs": [],
      "name": "baseURI",
      "outputs": [
        {
          "internalType": "string",
          "name": "",
          "type": "string"
        }
      ],
      "stateMutability": "view",
      "type": "function"
    },
    {
      "inputs": [
        {
          "internalType": "uint256",
          "name": "tokenId",
          "type": "uint256"
        }
      ],
      "name": "getApproved",
      "outputs": [
        {
          "internalType": "address",
          "name": "",
          "type": "address"
        }
      ],
      "stateMutability": "view",
      "type": "function"
    },
    {
      "inputs": [
        {
          "internalType": "address",
          "name": "owner",
          "type": "address"
        },
        {
          "internalType": "address",
          "name": "operator",
          "type": "address"
        }
      ],
      "name": "isApprovedForAll",
      "outputs": [
        {
          "internalType": "bool",
          "name": "",
          "type": "bool"
        }
      ],
      "stateMutability": "view",
      "type": "function"
    },
    {
      "inputs": [],
      "name": "name",
      "outputs": [
        {
          "internalType": "string",
          "name": "",
          "type": "string"
        }
      ],
      "stateMutability": "view",
      "type": "function"
    },
    {
      "inputs": [],
      "name": "owner",
      "outputs": [
        {
          "internalType": "address",
          "name": "",
          "type": "address"
        }
      ],
      "stateMutability": "view",
      "type": "function"
    },
    {
      "inputs": [
        {
          "internalType": "uint256",
          "name": "tokenId",
          "type": "uint256"
        }
      ],
      "name": "ownerOf",
      "outputs": [
        {
          "internalType": "address",
          "name": "",
          "type": "address"
        }
      ],
      "stateMutability": "view",
      "type": "function"
    },
    {
      "inputs": [],
      "name": "renounceOwnership",
      "outputs": [],
      "stateMutability": "nonpayable",
      "type": "function"
    },
    {
      "inputs": [
        {
          "internalType": "address",
          "name": "from",
          "type": "address"
        },
        {
          "internalType": "address",
          "name": "to",
          "type": "address"
        },
        {
          "internalType": "uint256",
          "name": "tokenId",
          "type": "uint256"
        }
      ],
      "name": "safeTransferFrom",
      "outputs": [],
      "stateMutability": "nonpayable",
      "type": "function"
    },
    {
      "inputs": [
        {
          "internalType": "address",
          "name": "from",
          "type": "address"
        },
        {
          "internalType": "address",
          "name": "to",
          "type": "address"
        },
        {
          "internalType": "uint256",
          "name": "tokenId",
          "type": "uint256"
        },
        {
          "internalType": "bytes",
          "name": "_data",
          "type": "bytes"
        }
      ],
      "name": "safeTransferFrom",
      "outputs": [],
      "stateMutability": "nonpayable",
      "type": "function"
    },
    {
      "inputs": [
        {
          "internalType": "address",
          "name": "operator",
          "type": "address"
        },
        {
          "internalType": "bool",
          "name": "approved",
          "type": "bool"
        }
      ],
      "name": "setApprovalForAll",
      "outputs": [],
      "stateMutability": "nonpayable",
      "type": "function"
    },
    {
      "inputs": [
        {
          "internalType": "bytes4",
          "name": "interfaceId",
          "type": "bytes4"
        }
      ],
      "name": "supportsInterface",
      "outputs": [
        {
          "internalType": "bool",
          "name": "",
          "type": "bool"
        }
      ],
      "stateMutability": "view",
      "type": "function"
    },
    {
      "inputs": [],
      "name": "symbol",
      "outputs": [
        {
          "internalType": "string",
          "name": "",
          "type": "string"
        }
      ],
      "stateMutability": "view",
      "type": "function"
    },
    {
      "inputs": [
        {
          "internalType": "uint256",
          "name": "index",
          "type": "uint256"
        }
      ],
      "name": "tokenByIndex",
      "outputs": [
        {
          "internalType": "uint256",
          "name": "",
          "type": "uint256"
        }
      ],
      "stateMutability": "view",
      "type": "function"
    },
    {
      "inputs": [
        {
          "internalType": "address",
          "name": "owner",
          "type": "address"
        },
        {
          "internalType": "uint256",
          "name": "index",
          "type": "uint256"
        }
      ],
      "name": "tokenOfOwnerByIndex",
      "outputs": [
        {
          "internalType": "uint256",
          "name": "",
          "type": "uint256"
        }
      ],
      "stateMutability": "view",
      "type": "function"
    },
    {
      "inputs": [],
      "name": "totalSupply",
      "outputs": [
        {
          "internalType": "uint256",
          "name": "",
          "type": "uint256"
        }
      ],
      "stateMutability": "view",
      "type": "function"
    },
    {
      "inputs": [
        {
          "internalType": "address",
          "name": "from",
          "type": "address"
        },
        {
          "internalType": "address",
          "name": "to",
          "type": "address"
        },
        {
          "internalType": "uint256",
          "name": "tokenId",
          "type": "uint256"
        }
      ],
      "name": "transferFrom",
      "outputs": [],
      "stateMutability": "nonpayable",
      "type": "function"
    },
    {
      "inputs": [
        {
          "internalType": "address",
          "name": "newOwner",
          "type": "address"
        }
      ],
      "name": "transferOwnership",
      "outputs": [],
      "stateMutability": "nonpayable",
      "type": "function"
    },
    {
      "inputs": [
        {
          "internalType": "address",
          "name": "_to",
          "type": "address"
        },
        {
          "internalType": "string[]",
          "name": "_hashes",
          "type": "string[]"
        }
      ],
      "name": "mint",
      "outputs": [],
      "stateMutability": "nonpayable",
      "type": "function"
    },
    {
      "inputs": [
        {
          "internalType": "address",
          "name": "_owner",
          "type": "address"
        }
      ],
      "name": "walletOfOwner",
      "outputs": [
        {
          "internalType": "uint256[]",
          "name": "",
          "type": "uint256[]"
        }
      ],
      "stateMutability": "view",
      "type": "function"
    },
    {
      "inputs": [
        {
          "internalType": "uint256",
          "name": "tokenId",
          "type": "uint256"
        }
      ],
      "name": "tokenURI",
      "outputs": [
        {
          "internalType": "string",
          "name": "",
          "type": "string"
        }
      ],
      "stateMutability": "view",
      "type": "function"
    },
    {
      "inputs": [
        {
          "internalType": "string",
          "name": "_newBaseURI",
          "type": "string"
        }
      ],
      "name": "setBaseURI",
      "outputs": [],
      "stateMutability": "nonpayable",
      "type": "function"
    }
  ],
  "bytecode": "0x60806040523480156200001157600080fd5b5060405162003cfa38038062003cfa8339818101604052810190620000379190620002d3565b8181816000908051906020019062000051929190620001b1565b5080600190805190602001906200006a929190620001b1565b5050506200008d62000081620000e360201b60201c565b620000eb60201b60201c565b6040518060400160405280601581526020017f68747470733a2f2f697066732e696f2f697066732f0000000000000000000000815250600b9080519060200190620000da929190620001b1565b50505062000477565b600033905090565b6000600a60009054906101000a900473ffffffffffffffffffffffffffffffffffffffff16905081600a60006101000a81548173ffffffffffffffffffffffffffffffffffffffff021916908373ffffffffffffffffffffffffffffffffffffffff1602179055508173ffffffffffffffffffffffffffffffffffffffff168173ffffffffffffffffffffffffffffffffffffffff167f8be0079c531659141344cd1fd0a4f28419497f9722a3daafe3b4186f6b6457e060405160405180910390a35050565b828054620001bf90620003e3565b90600052602060002090601f016020900481019282620001e357600085556200022f565b82601f10620001fe57805160ff19168380011785556200022f565b828001600101855582156200022f579182015b828111156200022e57825182559160200191906001019062000211565b5b5090506200023e919062000242565b5090565b5b808211156200025d57600081600090555060010162000243565b5090565b60006200027862000272846200037a565b62000346565b9050828152602081018484840111156200029157600080fd5b6200029e848285620003ad565b509392505050565b600082601f830112620002b857600080fd5b8151620002ca84826020860162000261565b91505092915050565b60008060408385031215620002e757600080fd5b600083015167ffffffffffffffff8111156200030257600080fd5b6200031085828601620002a6565b925050602083015167ffffffffffffffff8111156200032e57600080fd5b6200033c85828601620002a6565b9150509250929050565b6000604051905081810181811067ffffffffffffffff8211171562000370576200036f62000448565b5b8060405250919050565b600067ffffffffffffffff82111562000398576200039762000448565b5b601f19601f8301169050602081019050919050565b60005b83811015620003cd578082015181840152602081019050620003b0565b83811115620003dd576000848401525b50505050565b60006002820490506001821680620003fc57607f821691505b6020821081141562000413576200041262000419565b5b50919050565b7f4e487b7100000000000000000000000000000000000000000000000000000000600052602260045260246000fd5b7f4e487b7100000000000000000000000000000000000000000000000000000000600052604160045260246000fd5b61387380620004876000396000f3fe608060405234801561001057600080fd5b506004361061014d5760003560e01c80636352211e116100c3578063a22cb4651161007c578063a22cb465146103b2578063b88d4fde146103ce578063c87b56dd146103ea578063d90794cf1461041a578063e985e9c514610436578063f2fde38b146104665761014d565b80636352211e146102ee5780636c0360eb1461031e57806370a082311461033c578063715018a61461036c5780638da5cb5b1461037657806395d89b41146103945761014d565b806323b872dd1161011557806323b872dd1461020a5780632f745c591461022657806342842e0e14610256578063438b6300146102725780634f6ccce7146102a257806355f804b3146102d25761014d565b806301ffc9a71461015257806306fdde0314610182578063081812fc146101a0578063095ea7b3146101d057806318160ddd146101ec575b600080fd5b61016c600480360381019061016791906127d1565b610482565b60405161017991906131a2565b60405180910390f35b61018a6104fc565b60405161019791906131bd565b60405180910390f35b6101ba60048036038101906101b59190612864565b61058e565b6040516101c79190613119565b60405180910390f35b6101ea60048036038101906101e59190612795565b610613565b005b6101f461072b565b604051610201919061341f565b60405180910390f35b610224600480360381019061021f919061263b565b610738565b005b610240600480360381019061023b9190612795565b610798565b60405161024d919061341f565b60405180910390f35b610270600480360381019061026b919061263b565b61083d565b005b61028c600480360381019061028791906125d6565b61085d565b6040516102999190613180565b60405180910390f35b6102bc60048036038101906102b79190612864565b610957565b6040516102c9919061341f565b60405180910390f35b6102ec60048036038101906102e79190612823565b6109ee565b005b61030860048036038101906103039190612864565b610a84565b6040516103159190613119565b60405180910390f35b610326610b36565b60405161033391906131bd565b60405180910390f35b610356600480360381019061035191906125d6565b610bc4565b604051610363919061341f565b60405180910390f35b610374610c7c565b005b61037e610d04565b60405161038b9190613119565b60405180910390f35b61039c610d2e565b6040516103a991906131bd565b60405180910390f35b6103cc60048036038101906103c79190612759565b610dc0565b005b6103e860048036038101906103e3919061268a565b610dd6565b005b61040460048036038101906103ff9190612864565b610e38565b60405161041191906131bd565b60405180910390f35b610434600480360381019061042f9190612705565b610f14565b005b610450600480360381019061044b91906125ff565b611049565b60405161045d91906131a2565b60405180910390f35b610480600480360381019061047b91906125d6565b6110dd565b005b60007f780e9d63000000000000000000000000000000000000000000000000000000007bffffffffffffffffffffffffffffffffffffffffffffffffffffffff1916827bffffffffffffffffffffffffffffffffffffffffffffffffffffffff191614806104f557506104f4826111d5565b5b9050919050565b60606000805461050b906136c8565b80601f0160208091040260200160405190810160405280929190818152602001828054610537906136c8565b80156105845780601f1061055957610100808354040283529160200191610584565b820191906000526020600020905b81548152906001019060200180831161056757829003601f168201915b5050505050905090565b6000610599826112b7565b6105d8576040517f08c379a00000000000000000000000000000000000000000000000000000000081526004016105cf9061335f565b60405180910390fd5b6004600083815260200190815260200160002060009054906101000a900473ffffffffffffffffffffffffffffffffffffffff169050919050565b600061061e82610a84565b90508073ffffffffffffffffffffffffffffffffffffffff168373ffffffffffffffffffffffffffffffffffffffff16141561068f576040517f08c379a0000000000000000000000000000000000000000000000000000000008152600401610686906133bf565b60405180910390fd5b8073ffffffffffffffffffffffffffffffffffffffff166106ae611323565b73ffffffffffffffffffffffffffffffffffffffff1614806106dd57506106dc816106d7611323565b611049565b5b61071c576040517f08c379a0000000000000000000000000000000000000000000000000000000008152600401610713906132df565b60405180910390fd5b610726838361132b565b505050565b6000600880549050905090565b610749610743611323565b826113e4565b610788576040517f08c379a000000000000000000000000000000000000000000000000000000000815260040161077f906133df565b60405180910390fd5b6107938383836114c2565b505050565b60006107a383610bc4565b82106107e4576040517f08c379a00000000000000000000000000000000000000000000000000000000081526004016107db906131df565b60405180910390fd5b600660008473ffffffffffffffffffffffffffffffffffffffff1673ffffffffffffffffffffffffffffffffffffffff168152602001908152602001600020600083815260200190815260200160002054905092915050565b61085883838360405180602001604052806000815250610dd6565b505050565b6060600061086a83610bc4565b905060008167ffffffffffffffff8111156108ae577f4e487b7100000000000000000000000000000000000000000000000000000000600052604160045260246000fd5b6040519080825280602002602001820160405280156108dc5781602001602082028036833780820191505090505b50905060005b8281101561094c576108f48582610798565b82828151811061092d577f4e487b7100000000000000000000000000000000000000000000000000000000600052603260045260246000fd5b6020026020010181815250508080610944906136fa565b9150506108e2565b508092505050919050565b600061096161072b565b82106109a2576040517f08c379a0000000000000000000000000000000000000000000000000000000008152600401610999906133ff565b60405180910390fd5b600882815481106109dc577f4e487b7100000000000000000000000000000000000000000000000000000000600052603260045260246000fd5b90600052602060002001549050919050565b6109f6611323565b73ffffffffffffffffffffffffffffffffffffffff16610a14610d04565b73ffffffffffffffffffffffffffffffffffffffff1614610a6a576040517f08c379a0000000000000000000000000000000000000000000000000000000008152600401610a619061337f565b60405180910390fd5b80600b9080519060200190610a80929190612373565b5050565b6000806002600084815260200190815260200160002060009054906101000a900473ffffffffffffffffffffffffffffffffffffffff169050600073ffffffffffffffffffffffffffffffffffffffff168173ffffffffffffffffffffffffffffffffffffffff161415610b2d576040517f08c379a0000000000000000000000000000000000000000000000000000000008152600401610b249061331f565b60405180910390fd5b80915050919050565b600b8054610b43906136c8565b80601f0160208091040260200160405190810160405280929190818152602001828054610b6f906136c8565b8015610bbc5780601f10610b9157610100808354040283529160200191610bbc565b820191906000526020600020905b815481529060010190602001808311610b9f57829003601f168201915b505050505081565b60008073ffffffffffffffffffffffffffffffffffffffff168273ffffffffffffffffffffffffffffffffffffffff161415610c35576040517f08c379a0000000000000000000000000000000000000000000000000000000008152600401610c2c906132ff565b60405180910390fd5b600360008373ffffffffffffffffffffffffffffffffffffffff1673ffffffffffffffffffffffffffffffffffffffff168152602001908152602001600020549050919050565b610c84611323565b73ffffffffffffffffffffffffffffffffffffffff16610ca2610d04565b73ffffffffffffffffffffffffffffffffffffffff1614610cf8576040517f08c379a0000000000000000000000000000000000000000000000000000000008152600401610cef9061337f565b60405180910390fd5b610d026000611729565b565b6000600a60009054906101000a900473ffffffffffffffffffffffffffffffffffffffff16905090565b606060018054610d3d906136c8565b80601f0160208091040260200160405190810160405280929190818152602001828054610d69906136c8565b8015610db65780601f10610d8b57610100808354040283529160200191610db6565b820191906000526020600020905b815481529060010190602001808311610d9957829003601f168201915b5050505050905090565b610dd2610dcb611323565b83836117ef565b5050565b610de7610de1611323565b836113e4565b610e26576040517f08c379a0000000000000000000000000000000000000000000000000000000008152600401610e1d906133df565b60405180910390fd5b610e328484848461195c565b50505050565b6060610e43826112b7565b610e82576040517f08c379a0000000000000000000000000000000000000000000000000000000008152600401610e799061339f565b60405180910390fd5b6000610e8c6119b8565b905060008151118015610ebe57506000600c60008581526020019081526020016000208054610eba906136c8565b9050115b610ed75760405180602001604052806000815250610f0c565b80600c6000858152602001908152602001600020604051602001610efc9291906130f5565b6040516020818303038152906040525b915050919050565b610f1c611323565b73ffffffffffffffffffffffffffffffffffffffff16610f3a610d04565b73ffffffffffffffffffffffffffffffffffffffff1614610f90576040517f08c379a0000000000000000000000000000000000000000000000000000000008152600401610f879061337f565b60405180910390fd5b6000610f9a61072b565b905060005b825181101561104357610fbd848284610fb89190613588565b611a4a565b828181518110610ff6577f4e487b7100000000000000000000000000000000000000000000000000000000600052603260045260246000fd5b6020026020010151600c6000838561100e9190613588565b8152602001908152602001600020908051906020019061102f929190612373565b50808061103b906136fa565b915050610f9f565b50505050565b6000600560008473ffffffffffffffffffffffffffffffffffffffff1673ffffffffffffffffffffffffffffffffffffffff16815260200190815260200160002060008373ffffffffffffffffffffffffffffffffffffffff1673ffffffffffffffffffffffffffffffffffffffff16815260200190815260200160002060009054906101000a900460ff16905092915050565b6110e5611323565b73ffffffffffffffffffffffffffffffffffffffff16611103610d04565b73ffffffffffffffffffffffffffffffffffffffff1614611159576040517f08c379a00000000000000000000000000000000000000000000000000000000081526004016111509061337f565b60405180910390fd5b600073ffffffffffffffffffffffffffffffffffffffff168173ffffffffffffffffffffffffffffffffffffffff1614156111c9576040517f08c379a00000000000000000000000000000000000000000000000000000000081526004016111c09061321f565b60405180910390fd5b6111d281611729565b50565b60007f80ac58cd000000000000000000000000000000000000000000000000000000007bffffffffffffffffffffffffffffffffffffffffffffffffffffffff1916827bffffffffffffffffffffffffffffffffffffffffffffffffffffffff191614806112a057507f5b5e139f000000000000000000000000000000000000000000000000000000007bffffffffffffffffffffffffffffffffffffffffffffffffffffffff1916827bffffffffffffffffffffffffffffffffffffffffffffffffffffffff1916145b806112b057506112af82611a68565b5b9050919050565b60008073ffffffffffffffffffffffffffffffffffffffff166002600084815260200190815260200160002060009054906101000a900473ffffffffffffffffffffffffffffffffffffffff1673ffffffffffffffffffffffffffffffffffffffff1614159050919050565b600033905090565b816004600083815260200190815260200160002060006101000a81548173ffffffffffffffffffffffffffffffffffffffff021916908373ffffffffffffffffffffffffffffffffffffffff160217905550808273ffffffffffffffffffffffffffffffffffffffff1661139e83610a84565b73ffffffffffffffffffffffffffffffffffffffff167f8c5be1e5ebec7d5bd14f71427d1e84f3dd0314c0f7b2291e5b200ac8c7c3b92560405160405180910390a45050565b60006113ef826112b7565b61142e576040517f08c379a0000000000000000000000000000000000000000000000000000000008152600401611425906132bf565b60405180910390fd5b600061143983610a84565b90508073ffffffffffffffffffffffffffffffffffffffff168473ffffffffffffffffffffffffffffffffffffffff16148061147b575061147a8185611049565b5b806114b957508373ffffffffffffffffffffffffffffffffffffffff166114a18461058e565b73ffffffffffffffffffffffffffffffffffffffff16145b91505092915050565b8273ffffffffffffffffffffffffffffffffffffffff166114e282610a84565b73ffffffffffffffffffffffffffffffffffffffff1614611538576040517f08c379a000000000000000000000000000000000000000000000000000000000815260040161152f9061323f565b60405180910390fd5b600073ffffffffffffffffffffffffffffffffffffffff168273ffffffffffffffffffffffffffffffffffffffff1614156115a8576040517f08c379a000000000000000000000000000000000000000000000000000000000815260040161159f9061327f565b60405180910390fd5b6115b3838383611ad2565b6115be60008261132b565b6001600360008573ffffffffffffffffffffffffffffffffffffffff1673ffffffffffffffffffffffffffffffffffffffff168152602001908152602001600020600082825461160e91906135de565b925050819055506001600360008473ffffffffffffffffffffffffffffffffffffffff1673ffffffffffffffffffffffffffffffffffffffff16815260200190815260200160002060008282546116659190613588565b92505081905550816002600083815260200190815260200160002060006101000a81548173ffffffffffffffffffffffffffffffffffffffff021916908373ffffffffffffffffffffffffffffffffffffffff160217905550808273ffffffffffffffffffffffffffffffffffffffff168473ffffffffffffffffffffffffffffffffffffffff167fddf252ad1be2c89b69c2b068fc378daa952ba7f163c4a11628f55a4df523b3ef60405160405180910390a4611724838383611be6565b505050565b6000600a60009054906101000a900473ffffffffffffffffffffffffffffffffffffffff16905081600a60006101000a81548173ffffffffffffffffffffffffffffffffffffffff021916908373ffffffffffffffffffffffffffffffffffffffff1602179055508173ffffffffffffffffffffffffffffffffffffffff168173ffffffffffffffffffffffffffffffffffffffff167f8be0079c531659141344cd1fd0a4f28419497f9722a3daafe3b4186f6b6457e060405160405180910390a35050565b8173ffffffffffffffffffffffffffffffffffffffff168373ffffffffffffffffffffffffffffffffffffffff16141561185e576040517f08c379a00000000000000000000000000000000000000000000000000000000081526004016118559061329f565b60405180910390fd5b80600560008573ffffffffffffffffffffffffffffffffffffffff1673ffffffffffffffffffffffffffffffffffffffff16815260200190815260200160002060008473ffffffffffffffffffffffffffffffffffffffff1673ffffffffffffffffffffffffffffffffffffffff16815260200190815260200160002060006101000a81548160ff0219169083151502179055508173ffffffffffffffffffffffffffffffffffffffff168373ffffffffffffffffffffffffffffffffffffffff167f17307eab39ab6107e8899845ad3d59bd9653f200f220920489ca2b5937696c318360405161194f91906131a2565b60405180910390a3505050565b6119678484846114c2565b61197384848484611beb565b6119b2576040517f08c379a00000000000000000000000000000000000000000000000000000000081526004016119a9906131ff565b60405180910390fd5b50505050565b6060600b80546119c7906136c8565b80601f01602080910402602001604051908101604052809291908181526020018280546119f3906136c8565b8015611a405780601f10611a1557610100808354040283529160200191611a40565b820191906000526020600020905b815481529060010190602001808311611a2357829003601f168201915b5050505050905090565b611a64828260405180602001604052806000815250611d82565b5050565b60007f01ffc9a7000000000000000000000000000000000000000000000000000000007bffffffffffffffffffffffffffffffffffffffffffffffffffffffff1916827bffffffffffffffffffffffffffffffffffffffffffffffffffffffff1916149050919050565b611add838383611ddd565b600073ffffffffffffffffffffffffffffffffffffffff168373ffffffffffffffffffffffffffffffffffffffff161415611b2057611b1b81611de2565b611b5f565b8173ffffffffffffffffffffffffffffffffffffffff168373ffffffffffffffffffffffffffffffffffffffff1614611b5e57611b5d8382611e2b565b5b5b600073ffffffffffffffffffffffffffffffffffffffff168273ffffffffffffffffffffffffffffffffffffffff161415611ba257611b9d81611f98565b611be1565b8273ffffffffffffffffffffffffffffffffffffffff168273ffffffffffffffffffffffffffffffffffffffff1614611be057611bdf82826120db565b5b5b505050565b505050565b6000611c0c8473ffffffffffffffffffffffffffffffffffffffff1661215a565b15611d75578373ffffffffffffffffffffffffffffffffffffffff1663150b7a02611c35611323565b8786866040518563ffffffff1660e01b8152600401611c579493929190613134565b602060405180830381600087803b158015611c7157600080fd5b505af1925050508015611ca257506040513d601f19601f82011682018060405250810190611c9f91906127fa565b60015b611d25573d8060008114611cd2576040519150601f19603f3d011682016040523d82523d6000602084013e611cd7565b606091505b50600081511415611d1d576040517f08c379a0000000000000000000000000000000000000000000000000000000008152600401611d14906131ff565b60405180910390fd5b805181602001fd5b63150b7a0260e01b7bffffffffffffffffffffffffffffffffffffffffffffffffffffffff1916817bffffffffffffffffffffffffffffffffffffffffffffffffffffffff191614915050611d7a565b600190505b949350505050565b611d8c8383612199565b611d996000848484611beb565b611dd8576040517f08c379a0000000000000000000000000000000000000000000000000000000008152600401611dcf906131ff565b60405180910390fd5b505050565b505050565b6008805490506009600083815260200190815260200160002081905550600881908060018154018082558091505060019003906000526020600020016000909190919091505550565b60006001611e3884610bc4565b611e4291906135de565b9050600060076000848152602001908152602001600020549050818114611f27576000600660008673ffffffffffffffffffffffffffffffffffffffff1673ffffffffffffffffffffffffffffffffffffffff168152602001908152602001600020600084815260200190815260200160002054905080600660008773ffffffffffffffffffffffffffffffffffffffff1673ffffffffffffffffffffffffffffffffffffffff168152602001908152602001600020600084815260200190815260200160002081905550816007600083815260200190815260200160002081905550505b6007600084815260200190815260200160002060009055600660008573ffffffffffffffffffffffffffffffffffffffff1673ffffffffffffffffffffffffffffffffffffffff16815260200190815260200160002060008381526020019081526020016000206000905550505050565b60006001600880549050611fac91906135de565b9050600060096000848152602001908152602001600020549050600060088381548110612002577f4e487b7100000000000000000000000000000000000000000000000000000000600052603260045260246000fd5b90600052602060002001549050806008838154811061204a577f4e487b7100000000000000000000000000000000000000000000000000000000600052603260045260246000fd5b9060005260206000200181905550816009600083815260200190815260200160002081905550600960008581526020019081526020016000206000905560088054806120bf577f4e487b7100000000000000000000000000000000000000000000000000000000600052603160045260246000fd5b6001900381819060005260206000200160009055905550505050565b60006120e683610bc4565b905081600660008573ffffffffffffffffffffffffffffffffffffffff1673ffffffffffffffffffffffffffffffffffffffff168152602001908152602001600020600083815260200190815260200160002081905550806007600084815260200190815260200160002081905550505050565b6000808273ffffffffffffffffffffffffffffffffffffffff16803b806020016040519081016040528181526000908060200190933c51119050919050565b600073ffffffffffffffffffffffffffffffffffffffff168273ffffffffffffffffffffffffffffffffffffffff161415612209576040517f08c379a00000000000000000000000000000000000000000000000000000000081526004016122009061333f565b60405180910390fd5b612212816112b7565b15612252576040517f08c379a00000000000000000000000000000000000000000000000000000000081526004016122499061325f565b60405180910390fd5b61225e60008383611ad2565b6001600360008473ffffffffffffffffffffffffffffffffffffffff1673ffffffffffffffffffffffffffffffffffffffff16815260200190815260200160002060008282546122ae9190613588565b92505081905550816002600083815260200190815260200160002060006101000a81548173ffffffffffffffffffffffffffffffffffffffff021916908373ffffffffffffffffffffffffffffffffffffffff160217905550808273ffffffffffffffffffffffffffffffffffffffff16600073ffffffffffffffffffffffffffffffffffffffff167fddf252ad1be2c89b69c2b068fc378daa952ba7f163c4a11628f55a4df523b3ef60405160405180910390a461236f60008383611be6565b5050565b82805461237f906136c8565b90600052602060002090601f0160209004810192826123a157600085556123e8565b82601f106123ba57805160ff19168380011785556123e8565b828001600101855582156123e8579182015b828111156123e75782518255916020019190600101906123cc565b5b5090506123f591906123f9565b5090565b5b808211156124125760008160009055506001016123fa565b5090565b60006124296124248461346b565b61343a565b9050808382526020820190508260005b85811015612469578135850161244f8882612597565b845260208401935060208301925050600181019050612439565b5050509392505050565b600061248661248184613497565b61343a565b90508281526020810184848401111561249e57600080fd5b6124a9848285613686565b509392505050565b60006124c46124bf846134c7565b61343a565b9050828152602081018484840111156124dc57600080fd5b6124e7848285613686565b509392505050565b6000813590506124fe816137e1565b92915050565b600082601f83011261251557600080fd5b8135612525848260208601612416565b91505092915050565b60008135905061253d816137f8565b92915050565b6000813590506125528161380f565b92915050565b6000815190506125678161380f565b92915050565b600082601f83011261257e57600080fd5b813561258e848260208601612473565b91505092915050565b600082601f8301126125a857600080fd5b81356125b88482602086016124b1565b91505092915050565b6000813590506125d081613826565b92915050565b6000602082840312156125e857600080fd5b60006125f6848285016124ef565b91505092915050565b6000806040838503121561261257600080fd5b6000612620858286016124ef565b9250506020612631858286016124ef565b9150509250929050565b60008060006060848603121561265057600080fd5b600061265e868287016124ef565b935050602061266f868287016124ef565b9250506040612680868287016125c1565b9150509250925092565b600080600080608085870312156126a057600080fd5b60006126ae878288016124ef565b94505060206126bf878288016124ef565b93505060406126d0878288016125c1565b925050606085013567ffffffffffffffff8111156126ed57600080fd5b6126f98782880161256d565b91505092959194509250565b6000806040838503121561271857600080fd5b6000612726858286016124ef565b925050602083013567ffffffffffffffff81111561274357600080fd5b61274f85828601612504565b9150509250929050565b6000806040838503121561276c57600080fd5b600061277a858286016124ef565b925050602061278b8582860161252e565b9150509250929050565b600080604083850312156127a857600080fd5b60006127b6858286016124ef565b92505060206127c7858286016125c1565b9150509250929050565b6000602082840312156127e357600080fd5b60006127f184828501612543565b91505092915050565b60006020828403121561280c57600080fd5b600061281a84828501612558565b91505092915050565b60006020828403121561283557600080fd5b600082013567ffffffffffffffff81111561284f57600080fd5b61285b84828501612597565b91505092915050565b60006020828403121561287657600080fd5b6000612884848285016125c1565b91505092915050565b600061289983836130d7565b60208301905092915050565b6128ae81613612565b82525050565b60006128bf8261351c565b6128c9818561354a565b93506128d4836134f7565b8060005b838110156129055781516128ec888261288d565b97506128f78361353d565b9250506001810190506128d8565b5085935050505092915050565b61291b81613624565b82525050565b600061292c82613527565b612936818561355b565b9350612946818560208601613695565b61294f816137d0565b840191505092915050565b600061296582613532565b61296f818561356c565b935061297f818560208601613695565b612988816137d0565b840191505092915050565b600061299e82613532565b6129a8818561357d565b93506129b8818560208601613695565b80840191505092915050565b600081546129d1816136c8565b6129db818661357d565b945060018216600081146129f65760018114612a0757612a3a565b60ff19831686528186019350612a3a565b612a1085613507565b60005b83811015612a3257815481890152600182019150602081019050612a13565b838801955050505b50505092915050565b6000612a50602b8361356c565b91507f455243373231456e756d657261626c653a206f776e657220696e646578206f7560008301527f74206f6620626f756e64730000000000000000000000000000000000000000006020830152604082019050919050565b6000612ab660328361356c565b91507f4552433732313a207472616e7366657220746f206e6f6e20455243373231526560008301527f63656976657220696d706c656d656e74657200000000000000000000000000006020830152604082019050919050565b6000612b1c60268361356c565b91507f4f776e61626c653a206e6577206f776e657220697320746865207a65726f206160008301527f64647265737300000000000000000000000000000000000000000000000000006020830152604082019050919050565b6000612b8260258361356c565b91507f4552433732313a207472616e736665722066726f6d20696e636f72726563742060008301527f6f776e65720000000000000000000000000000000000000000000000000000006020830152604082019050919050565b6000612be8601c8361356c565b91507f4552433732313a20746f6b656e20616c7265616479206d696e746564000000006000830152602082019050919050565b6000612c2860248361356c565b91507f4552433732313a207472616e7366657220746f20746865207a65726f2061646460008301527f72657373000000000000000000000000000000000000000000000000000000006020830152604082019050919050565b6000612c8e60198361356c565b91507f4552433732313a20617070726f766520746f2063616c6c6572000000000000006000830152602082019050919050565b6000612cce602c8361356c565b91507f4552433732313a206f70657261746f7220717565727920666f72206e6f6e657860008301527f697374656e7420746f6b656e00000000000000000000000000000000000000006020830152604082019050919050565b6000612d3460388361356c565b91507f4552433732313a20617070726f76652063616c6c6572206973206e6f74206f7760008301527f6e6572206e6f7220617070726f76656420666f7220616c6c00000000000000006020830152604082019050919050565b6000612d9a602a8361356c565b91507f4552433732313a2062616c616e636520717565727920666f7220746865207a6560008301527f726f2061646472657373000000000000000000000000000000000000000000006020830152604082019050919050565b6000612e0060298361356c565b91507f4552433732313a206f776e657220717565727920666f72206e6f6e657869737460008301527f656e7420746f6b656e00000000000000000000000000000000000000000000006020830152604082019050919050565b6000612e6660208361356c565b91507f4552433732313a206d696e7420746f20746865207a65726f20616464726573736000830152602082019050919050565b6000612ea6602c8361356c565b91507f4552433732313a20617070726f76656420717565727920666f72206e6f6e657860008301527f697374656e7420746f6b656e00000000000000000000000000000000000000006020830152604082019050919050565b6000612f0c60208361356c565b91507f4f776e61626c653a2063616c6c6572206973206e6f7420746865206f776e65726000830152602082019050919050565b6000612f4c602f8361356c565b91507f4552433732314d657461646174613a2055524920717565727920666f72206e6f60008301527f6e6578697374656e7420746f6b656e00000000000000000000000000000000006020830152604082019050919050565b6000612fb260218361356c565b91507f4552433732313a20617070726f76616c20746f2063757272656e74206f776e6560008301527f72000000000000000000000000000000000000000000000000000000000000006020830152604082019050919050565b600061301860318361356c565b91507f4552433732313a207472616e736665722063616c6c6572206973206e6f74206f60008301527f776e6572206e6f7220617070726f7665640000000000000000000000000000006020830152604082019050919050565b600061307e602c8361356c565b91507f455243373231456e756d657261626c653a20676c6f62616c20696e646578206f60008301527f7574206f6620626f756e647300000000000000000000000000000000000000006020830152604082019050919050565b6130e08161367c565b82525050565b6130ef8161367c565b82525050565b60006131018285612993565b915061310d82846129c4565b91508190509392505050565b600060208201905061312e60008301846128a5565b92915050565b600060808201905061314960008301876128a5565b61315660208301866128a5565b61316360408301856130e6565b81810360608301526131758184612921565b905095945050505050565b6000602082019050818103600083015261319a81846128b4565b905092915050565b60006020820190506131b76000830184612912565b92915050565b600060208201905081810360008301526131d7818461295a565b905092915050565b600060208201905081810360008301526131f881612a43565b9050919050565b6000602082019050818103600083015261321881612aa9565b9050919050565b6000602082019050818103600083015261323881612b0f565b9050919050565b6000602082019050818103600083015261325881612b75565b9050919050565b6000602082019050818103600083015261327881612bdb565b9050919050565b6000602082019050818103600083015261329881612c1b565b9050919050565b600060208201905081810360008301526132b881612c81565b9050919050565b600060208201905081810360008301526132d881612cc1565b9050919050565b600060208201905081810360008301526132f881612d27565b9050919050565b6000602082019050818103600083015261331881612d8d565b9050919050565b6000602082019050818103600083015261333881612df3565b9050919050565b6000602082019050818103600083015261335881612e59565b9050919050565b6000602082019050818103600083015261337881612e99565b9050919050565b6000602082019050818103600083015261339881612eff565b9050919050565b600060208201905081810360008301526133b881612f3f565b9050919050565b600060208201905081810360008301526133d881612fa5565b9050919050565b600060208201905081810360008301526133f88161300b565b9050919050565b6000602082019050818103600083015261341881613071565b9050919050565b600060208201905061343460008301846130e6565b92915050565b6000604051905081810181811067ffffffffffffffff82111715613461576134606137a1565b5b8060405250919050565b600067ffffffffffffffff821115613486576134856137a1565b5b602082029050602081019050919050565b600067ffffffffffffffff8211156134b2576134b16137a1565b5b601f19601f8301169050602081019050919050565b600067ffffffffffffffff8211156134e2576134e16137a1565b5b601f19601f8301169050602081019050919050565b6000819050602082019050919050565b60008190508160005260206000209050919050565b600081519050919050565b600081519050919050565b600081519050919050565b6000602082019050919050565b600082825260208201905092915050565b600082825260208201905092915050565b600082825260208201905092915050565b600081905092915050565b60006135938261367c565b915061359e8361367c565b9250827fffffffffffffffffffffffffffffffffffffffffffffffffffffffffffffffff038211156135d3576135d2613743565b5b828201905092915050565b60006135e98261367c565b91506135f48361367c565b92508282101561360757613606613743565b5b828203905092915050565b600061361d8261365c565b9050919050565b60008115159050919050565b60007fffffffff0000000000000000000000000000000000000000000000000000000082169050919050565b600073ffffffffffffffffffffffffffffffffffffffff82169050919050565b6000819050919050565b82818337600083830152505050565b60005b838110156136b3578082015181840152602081019050613698565b838111156136c2576000848401525b50505050565b600060028204905060018216806136e057607f821691505b602082108114156136f4576136f3613772565b5b50919050565b60006137058261367c565b91507fffffffffffffffffffffffffffffffffffffffffffffffffffffffffffffffff82141561373857613737613743565b5b600182019050919050565b7f4e487b7100000000000000000000000000000000000000000000000000000000600052601160045260246000fd5b7f4e487b7100000000000000000000000000000000000000000000000000000000600052602260045260246000fd5b7f4e487b7100000000000000000000000000000000000000000000000000000000600052604160045260246000fd5b6000601f19601f8301169050919050565b6137ea81613612565b81146137f557600080fd5b50565b61380181613624565b811461380c57600080fd5b50565b61381881613630565b811461382357600080fd5b50565b61382f8161367c565b811461383a57600080fd5b5056fea2646970667358221220d9a9cf8a3f172ec31e173d0b43574369caa60859d9ccf986c832b4c7441360f564736f6c63430008000033",
  "immutableReferences": {},
  "source": "// SPDX-License-Identifier: MIT\npragma solidity 0.8.0;\n\nimport \"@openzeppelin/contracts/token/ERC721/extensions/ERC721Enumerable.sol\";\nimport \"@openzeppelin/contracts/access/Ownable.sol\";\n\ncontract Nfts is ERC721Enumerable, Ownable {\n    string public baseURI;\n    mapping(uint256 => string) private _hashIPFS;\n\n    constructor(string memory _name, string memory _symbol)\n        ERC721(_name, _symbol)\n    {\n        baseURI = \"https://ipfs.io/ipfs/\";\n    }\n\n    function mint(address _to, string[] memory _hashes) public onlyOwner {\n        uint256 supply = totalSupply();\n\n        for (uint256 i = 0; i < _hashes.length; i++) {\n            _safeMint(_to, supply + i);\n            _hashIPFS[supply + i] = _hashes[i];\n        }\n    }\n\n    function walletOfOwner(address _owner) public view returns (uint256[] memory)\n    {\n        uint256 ownerTokenCount = balanceOf(_owner);\n        uint256[] memory tokenIds = new uint256[](ownerTokenCount);\n        for (uint256 i; i < ownerTokenCount; i++) {\n            tokenIds[i] = tokenOfOwnerByIndex(_owner, i);\n        }\n        return tokenIds;\n    }\n\n    function tokenURI(uint256 tokenId) public view virtual override returns (string memory)\n    {\n        require(\n            _exists(tokenId),\n            \"ERC721Metadata: URI query for nonexistent token\"\n        );\n\n        string memory currentBaseURI = _baseURI();\n        return\n            (bytes(currentBaseURI).length > 0 &&\n                bytes(_hashIPFS[tokenId]).length > 0)\n                ? string(abi.encodePacked(currentBaseURI, _hashIPFS[tokenId]))\n                : \"\";\n    }\n\n    function _baseURI() internal view virtual override returns (string memory) {\n        return baseURI;\n    }\n\n    function setBaseURI(string memory _newBaseURI) public onlyOwner {\n        baseURI = _newBaseURI;\n    }\n}",
  "sourcePath": "/home/labo/Escritorio/NFT/contracts/Nfts.sol",
  "compiler": {
    "name": "solc",
    "version": "0.8.0+commit.c7dfd78e.Emscripten.clang"
  },
  "schemaVersion": "3.4.7",
  "updatedAt": "2022-06-27T16:06:57.404Z",
  "devdoc": {
    "kind": "dev",
    "methods": {
      "approve(address,uint256)": {
        "details": "See {IERC721-approve}."
      },
      "balanceOf(address)": {
        "details": "See {IERC721-balanceOf}."
      },
      "getApproved(uint256)": {
        "details": "See {IERC721-getApproved}."
      },
      "isApprovedForAll(address,address)": {
        "details": "See {IERC721-isApprovedForAll}."
      },
      "name()": {
        "details": "See {IERC721Metadata-name}."
      },
      "owner()": {
        "details": "Returns the address of the current owner."
      },
      "ownerOf(uint256)": {
        "details": "See {IERC721-ownerOf}."
      },
      "renounceOwnership()": {
        "details": "Leaves the contract without owner. It will not be possible to call `onlyOwner` functions anymore. Can only be called by the current owner. NOTE: Renouncing ownership will leave the contract without an owner, thereby removing any functionality that is only available to the owner."
      },
      "safeTransferFrom(address,address,uint256)": {
        "details": "See {IERC721-safeTransferFrom}."
      },
      "safeTransferFrom(address,address,uint256,bytes)": {
        "details": "See {IERC721-safeTransferFrom}."
      },
      "setApprovalForAll(address,bool)": {
        "details": "See {IERC721-setApprovalForAll}."
      },
      "supportsInterface(bytes4)": {
        "details": "See {IERC165-supportsInterface}."
      },
      "symbol()": {
        "details": "See {IERC721Metadata-symbol}."
      },
      "tokenByIndex(uint256)": {
        "details": "See {IERC721Enumerable-tokenByIndex}."
      },
      "tokenOfOwnerByIndex(address,uint256)": {
        "details": "See {IERC721Enumerable-tokenOfOwnerByIndex}."
      },
      "tokenURI(uint256)": {
        "details": "See {IERC721Metadata-tokenURI}."
      },
      "totalSupply()": {
        "details": "See {IERC721Enumerable-totalSupply}."
      },
      "transferFrom(address,address,uint256)": {
        "details": "See {IERC721-transferFrom}."
      },
      "transferOwnership(address)": {
        "details": "Transfers ownership of the contract to a new account (`newOwner`). Can only be called by the current owner."
      }
    },
    "version": 1
  },
  "userdoc": {
    "kind": "user",
    "methods": {},
    "version": 1
  }
}